:10000000008000201DAE0000B7AE0000B9AE0000B9
:10001000FFFFFFFFFFFFFFFFFFFFFFFFFFFFFFFFF0
:10002000FFFFFFFFFFFFFFFFFFFFFFFFBBAE000073
:10003000FFFFFFFFFFFFFFFFBDAE0000A538000080
:10004000C1AE0000C1AE0000C1AE0000C1AE0000F4
:10005000C1AE0000C1AE0000C1AE0000C1AE0000E4
:10006000C1AE0000C1AE0000C1AE000099A1000009
:10007000C1AE0000C1AE0000C1AE0000C1AE0000C4
:10008000C1AE0000C1AE0000C1AE00002D85000071
:100090005985000079A1000089A100007546000083
:1000A00099460000A9460000B9460000C1AE000014
:1000B000C1AE0000913D0000C1AE0000C1AE000025
:1000C00010B5064C2378002B07D1054B002B02D02E
:1000D000044800E000BF0123237010BD640100202C
:1000E0000000000044CC0000044B10B5002B03D0EE
:1000F0000349044800E000BF10BDC04600000000F6
:100100006801002044CC000002B47146490849004F
:10011000095C49008E4402BC7047C0460022430877
:100120008B4274D303098B425FD3030A8B4244D3BF
:10013000030B8B4228D3030C8B420DD3FF22090201
:1001400012BA030C8B4202D31212090265D0030BC0
:100150008B4219D300E0090AC30B8B4201D3CB03B6
:10016000C01A5241830B8B4201D38B03C01A5241F8
:10017000430B8B4201D34B03C01A5241030B8B42FA
:1001800001D30B03C01A5241C30A8B4201D3CB02E5
:10019000C01A5241830A8B4201D38B02C01A5241CA
:1001A000430A8B4201D34B02C01A5241030A8B42CD
:1001B00001D30B02C01A5241CDD2C3098B4201D3E5
:1001C000CB01C01A524183098B4201D38B01C01A63
:1001D000524143098B4201D34B01C01A52410309DA
:1001E0008B4201D30B01C01A5241C3088B4201D389
:1001F000CB00C01A524183088B4201D38B00C01A36
:10020000524143088B4201D34B00C01A5241411A5C
:1002100000D20146524110467047FFE701B5002069
:1002200000F0F0F802BDC0460029F7D076E770472D
:1002300003460B437FD4002243088B4274D3030947
:100240008B425FD3030A8B4244D3030B8B4228D3E8
:10025000030C8B420DD3FF22090212BA030C8B420E
:1002600002D31212090265D0030B8B4219D300E0AE
:10027000090AC30B8B4201D3CB03C01A5241830B33
:100280008B4201D38B03C01A5241430B8B4201D3E3
:100290004B03C01A5241030B8B4201D30B03C01A0C
:1002A0005241C30A8B4201D3CB02C01A5241830A86
:1002B0008B4201D38B02C01A5241430A8B4201D3B5
:1002C0004B02C01A5241030A8B4201D30B02C01ADF
:1002D0005241CDD2C3098B4201D3CB01C01A524146
:1002E00083098B4201D38B01C01A524143098B42CF
:1002F00001D34B01C01A524103098B4201D30B01B8
:10030000C01A5241C3088B4201D3CB00C01A5241DC
:1003100083088B4201D38B00C01A524143088B42A1
:1003200001D34B00C01A5241411A00D2014652413A
:10033000104670475DE0CA0F00D04942031000D359
:100340004042534000229C4603098B422DD3030AAE
:100350008B4212D3FC22890112BA030A8B420CD3BE
:10036000890192118B4208D3890192118B4204D3E7
:1003700089013AD0921100E08909C3098B4201D367
:10038000CB01C01A524183098B4201D38B01C01AA1
:10039000524143098B4201D34B01C01A5241030918
:1003A0008B4201D30B01C01A5241C3088B4201D3C7
:1003B000CB00C01A524183088B4201D38B00C01A74
:1003C0005241D9D243088B4201D34B00C01A52414B
:1003D000411A00D20146634652415B10104601D3D8
:1003E0004042002B00D54942704763465B1000D362
:1003F000404201B5002000F005F802BD0029F8D008
:1004000016E770477047C046D0400B1CD1409C4651
:10041000203AD340184352426346934018437047F2
:100420009140031C90409C46203A9340194352420D
:100430006346D340194370478446101C62468C467D
:10044000191C634600E0C0461FB501F015FF0028E7
:1004500001D40021C8421FBD10B501F06DFE40421D
:10046000013010BD10B501F007FF002801DB0020AE
:1004700010BD012010BDC04610B501F0FDFE0028E2
:1004800001DD002010BD012010BDC04610B501F0F7
:100490008FFE002801DC002010BD012010BDC046E9
:1004A00010B501F085FE002801DA002010BD012002
:1004B00010BDC0468446081C6146FFE71FB500F02A
:1004C0006DFC002801D40021C8421FBD10B500F00A
:1004D000EFFB4042013010BD10B500F05FFC00287A
:1004E00001DB002010BD012010BDC04610B500F09A
:1004F00055FC002801DD002010BD012010BDC046C4
:1005000010B500F0FDFB002801DC002010BD01202B
:1005100010BDC04610B500F0F3FB002801DA002042
:1005200010BD012010BDC046002B11D1002A0FD1F3
:10053000002900D1002802D00021C943081C07B4BB
:10054000024802A14018029003BDC046B9FEFFFF59
:1005500003B4684601B5029800F03CF8019B9E4642
:1005600002B00CBC7047C0469E2110B5C905041CE2
:10057000FFF7D0FF002803D1201C00F055FF10BD6D
:100580009E21201CC90500F08BFD00F04DFF80234B
:100590001B069C466044F2E770B500220C4B040039
:1005A0000D00FFF77DFF002804D12000290002F094
:1005B000A1FC70BD064B00222000290002F036F994
:1005C00002F098FC80231B069C466044F1E7C0467D
:1005D0000000E041F0B54F464646D646C0B504009F
:1005E00082B00D00914698468B422FD82CD04146C0
:1005F000484602F015FE29000600200002F010FE19
:10060000331A9C46203B9A4600D576E04B4652462C
:1006100093401F004B46624693401E00AF4228D8CD
:1006200025D05346A41BBD41002B00DA7BE00022FD
:10063000002300920193012352469340019301232A
:1006400062469340009318E08242D0D900220023F2
:10065000009201930A9B002B01D01C605D60009802
:10066000019902B01CBC90469946A246F0BDA34237
:10067000D7D900220023009201936346002BE9D0D2
:10068000FB079846414672080A437B0866460EE01F
:10069000AB4201D1A2420CD8A41A9D4101202419D9
:1006A0006D410021013E24184D41002E06D0AB4281
:1006B000EED9013E24196D41002EF8D10098019920
:1006C000534600196941002B23DB2B005246D340CF
:1006D0002A006446E2401C0053461500002B2DDB27
:1006E00026005746BE40330026006746BE40320013
:1006F000801A994100900191ACE7624620239B1A31
:100700004A46DA406146130042468A4017001F43BA
:1007100080E7624620239B1A2A0066469A402300FF
:10072000F3401343D4E76246202300219B1A0022A2
:10073000009101920122DA40019280E72023624673
:1007400026009B1ADE402F00B0466646B74046465C
:100750003B003343C8E7C046F8B54746CE464302A0
:100760005B0A4400C20F9C464800DD004B02240E89
:100770005B0A000E80B5984626009146C90FDB0043
:10078000271A8A4229D0002F15DD00284AD1002BD4
:1007900000D095E0ED08FF2C00D188E06B025B0AE9
:1007A000E6B25B02F605580A3043D20710430CBC90
:1007B00090469946F8BD002F00D087E0601CC0B27B
:1007C000012800DCB6E0EE1A720100D5C5E0002E6B
:1007D0003DD1002200260023E3E7002F00DC96E055
:1007E00000285DD0FF2C60D08022D20413431B2F41
:1007F00000DDECE02022D21B18009340F8405A1E86
:1008000093410343ED186B017BD50134FF2C00D1DC
:10081000B7E0012207262A406B089A4D1D40154378
:100820002E4029E0FF2CB5D08022D20413431B2F89
:1008300000DDB2E02022D21B19009340F9405A1E7D
:1008400093410B43ED1A6B015BD5AD01AE0930004E
:1008500002F0C8FC05388640844265DC041B330086
:1008600020200134E340041BA640751EAE413343F3
:1008700007261D0000241E4001224B461A40002E70
:1008800004D00F232B40042B00D004356B0100D47F
:1008900080E70134E6B2FF2C2FD1FF26002380E74A
:1008A000002B52D1FF2C00D074E70A00ED08002D78
:1008B000F3D08023DB032B435B025B0AFF2670E748
:1008C000013F002FBED0FF2CB1D163E7002C47D0F1
:1008D000FF2869D08024E4047A4225431B2A00DDE6
:1008E000C5E02C002026D440B21A95406A1E9541DE
:1008F00025435D1B04008946A5E7AB015B0A50E771
:10090000002401224B461A406B07BAD142E7002F60
:100910003BD10134E0B201284ADDFF2CBDD00726CF
:10092000ED186D082E40A7E70723574D241A3540D0
:100930001E40A1E7002C1BD1002D6ED1002B00D151
:100940009AE00A001D003C0024E7013F002F00D17F
:1009500058E7FF2C00D04AE7A7E75E1B894676E7F9
:10096000002D1CD10A00FF281FD004001D0011E734
:10097000002D5DD1002B17D180230022DB03FF2641
:100980000FE70A00FF2600230BE7002C21D1002DE2
:1009900066D1FF28E9D11D0087E7012352E77A1CC1
:1009A000A7D0FA43FF2899D10A001D00FF24F1E6E1
:1009B000002E21D1002D4FD0002B4CD0ED186B0113
:1009C0009ED5314B07362E4001241D4054E70123AC
:1009D00018E7FF28DFD08024E4047F4225431B2F43
:1009E0004DDC2026F61B2C00B540FC406A1E9541CC
:1009F0002543ED18040006E7002DCCD0002B00D1D4
:100A000053E780216046C903084203D040460842AC
:100A100000D11D000121114047E7002B00D1B9E6AC
:100A2000EA1A500125D507265D1B2E40894623E78B
:100A3000FF24002B00D1ADE680226046D203104295
:100A400004D04046104201D11D00894601224B4688
:100A5000FF241A409EE62B00DD080A0000249DE6D4
:100A60007A1CC6D0FF43FF28B9D11D001DE7012520
:100A70003FE7151E00D044E70022002391E6012540
:100A8000B7E7C046FFFFFF7DFFFFFFFBF8B5574606
:100A90004E464546DE464402E0B546008846640AB6
:100AA000360EC70F002E63D0FF2E24D08023E40023
:100AB000DB041C43002399469B467F3E4346424647
:100AC0005D02D20F5B006D0A1B0E9046924665D008
:100AD000FF2B55D080220021ED00D2047F3B15432F
:100AE000F61A43464A467B400F2A00D98DE06D48EE
:100AF000920082589746002C54D108239946063B11
:100B0000FF269B46DAE70025534602291BD003291E
:100B100000D1BFE0012928D030007F30002820DD3F
:100B20006A0704D00F222A40042A00D004352A0183
:100B300003D530005C4A80301540FE2803DCAC0150
:100B4000640AC2B201E0FF2200246402D205600AF6
:100B5000DB07104318433CBC90469946A246AB467F
:100B6000F8BD0122101A1B287CDD00220024ECE7CE
:100B7000002C1DD104239946033B00269B469DE78C
:100B8000FF3E002D20D1022143464A467B400A43C6
:100B90000F2AD8D84548920082589746002D19D17F
:100BA0000121F1E70C239946093BFF269B4685E787
:100BB000200002F017FB7626431F9C40002376425C
:100BC000361A99469B4679E74A4603231A439146CB
:100BD000032186E7280002F005FB431F36189D40DD
:100BE000763600217DE780240023E403FF22ACE772
:100BF00000258023DB031C4228D01D4226D12B4335
:100C00005C02640A4346FF229FE762016C01A24234
:100C100024D21B210025013E012710006D00520047
:100C2000002801DB944201D8121B3D430139002901
:100C3000F3D11400621E944125436DE7BA4659462C
:100C400025005346022900D061E77CE78023DB03BF
:100C50001C436402640A3B00FF2276E7121B1A2140
:100C60000125D9E79E362A00B5402C00C240651EFA
:100C7000AC411443620704D00F222240042A00D062
:100C80000434620103D4A401640A00225DE7012256
:100C900000245AE78024E4032C436402640AFF2200
:100CA00053E7C04674CC0000FFFFFFF7B4CC000050
:100CB00070B542004E024C0045026D0A120EC30F81
:100CC000760A240EC90FFF2A0FD0FF2C11D0012065
:100CD000A24200D070BDB542FCD18B420DD0002A9B
:100CE000F8D12800451EA841F4E70120002DF1D1DC
:100CF000EBE70120002EEDD1E9E70020EAE7C0464E
:100D000070B54A004E02450244006D0A240EC30F1E
:100D1000760A120EC90FFF2C15D0FF2A0ED0002C18
:100D200015D1002A01D1002E1CD0002D14D08B42E9
:100D300027D00220013B1840013870BD002EEED0B4
:100D400002204042F9E7002DFAD1FF2A0ED0002AF6
:100D50000ED1002EEDD00BE001230139994308009C
:100D60000130EAE70020002DE7D0E2E7002EE7D1CE
:100D70008B42DED1944205DD0221581E0840013825
:100D8000DBE70024A24204DCB542D2D80020B54201
:100D9000D3D2581E012398430130CEE730B542002C
:100DA00044024D02C30F4800640A120E6D0A000E81
:100DB000C90FFF2A12D0FF280CD0002A12D1002818
:100DC00019D1002D17D1002C2BD00220013B184047
:100DD000013826E0002DF0D0022022E0002CFBD1CB
:100DE000FF281FD000281FD1002D1DD10220013B5C
:100DF0001840013815E0002C0ED08B42E5D10022BE
:100E0000904204DCAC42E0D80020AC4209D2581E2B
:100E100001239843013004E001230139994308007C
:100E2000013030BD002DD7D18B42CED18242E7DDDB
:100E30000221581E08400138F3E7C046F0B54E467F
:100E400057464546DE46E0B543025B0A450083B09F
:100E50000F1C99462D0EC60F002D57D0FF2D24D004
:100E60008020DB00C0041843002381469A469B463D
:100E70007F3D7C027A00FB0F640A120E984623D055
:100E8000FF2A4BD0E30080240020E4047F3A1C4377
:100E9000AD186B1C47460193534677403A000F2B21
:100EA00048D87D499B00CB589F46002B00D085E059
:100EB00008339A46063B9B467C027A00FB0FFF25CF
:100EC000640A120E9846DBD1002C00D090E0524606
:100ED00001231A4392460120DBE74C46584617008F
:100EE000022824D0032800D1CFE0002200230128CB
:100EF0004DD15802D205400AFF071043384303B0D2
:100F00003CBC90469946A246AB46F0BD002B5BD157
:100F100004239A46033B00259B46AAE7FF35002C95
:100F200060D1524602231A4392460220B1E7FF22C3
:100F30000023DEE74B461B0C9C464B462604360C32
:100F4000180461463300220C6446000C43434E43B0
:100F50005043544380191A0C1218964203D9802129
:100F600049028C4664441B041B0C1004C018830106
:100F70005E1EB341800E1843130C1B199B010343E3
:100F80001C00230179D5012362081C401443019AF7
:100F90007F32002A4DDD630704D00F232340042B4A
:100FA00000D00434230103D53C4B019A1C4080320D
:100FB000FE2ABCDCA3015B0AD2B29AE70C239A4654
:100FC000093BFF259B4654E7180002F00BF94A46FF
:100FD000431F76259A4000236D4291462D1A9A466A
:100FE0009B4646E7524603231A439246032050E7A6
:100FF000200002F0F7F8431F2D1A9C40763D002098
:1010000047E780230027DB03FF2272E7424666E7BB
:101010004C463200584662E780234A46DB031A42B8
:1010200022D01C4220D123435B025B0A4746FF22A9
:101030005FE701239A1A1B2A21DC23000199D34080
:101040009E318C401A0023005C1EA34113435A07B3
:1010500004D00F221A40042A00D004335A0111D4BC
:101060009B015B0A002244E780234A46DB031343CB
:101070005B025B0A3700FF223BE7019587E700220E
:10108000002336E70122002333E78023DB032343D9
:101090005B025B0AFF222CE7F4CC0000FFFFFFF7A6
:1010A000F8B54746CE464400C20F80B54702480215
:1010B000400A8446664648007F0A240EF600250052
:1010C0009046FB00000EC90FB146FF2800D185E015
:1010D00001267140261A914257D0002E43DD002888
:1010E00000D07FE04946002900D1AAE0013E002E51
:1010F00000D0F7E05B1A5A0100D48BE09B019C09F9
:10110000200002F06FF805388440854200DDD3E00E
:10111000451B230020200135EB40451BAC40621EDF
:1011200094412343072400251C40012241460A40E4
:10113000002C04D00F211940042900D00433590198
:1011400000D480E00135ECB2FF2D00D0A3E0FF24F5
:1011500000235B02E405580AD207204310430CBC6D
:1011600090469946F8BD002E74D1601CC0B201288B
:1011700000DCA7E04A469C1A620100D5B6E0002CCC
:10118000BED1002200240023E3E7002E00DC85E02E
:10119000002846D0FF2C49D080224846D204104374
:1011A000814601221B2E09DC20204C46801B8440F6
:1011B0004A462000F240441EA04102439B185A01B7
:1011C00028D50135FF2D00D1A8E00122072494493C
:1011D0001A405B080B4013431C40A6E7002E00D0CA
:1011E00078E775E7FF2C54D080224946D20411439A
:1011F000894601221B2E09DC20214846891B884094
:101200004A460100F240481E81410A439B1A5A0196
:1012100000D573E7012241460A40590700D089E70B
:1012200011E04846002858D1FF2C0CD1DB08002BD8
:1012300000D18CE78020C00303435B025B0AFF24DC
:1012400087E7FF2C25D0DB08FF2DF0D05B025B0A7F
:10125000ECB27EE7002C4DD0FF2818D08024E404A7
:10126000724223431B2A00DDC4E01C002025D44029
:10127000AA1A93405A1E934123434A460500D31AA3
:10128000884638E7721CF8D0F243FF28EAD10A00FA
:101290004B46FF25D7E79B015B0A5AE7002E41D159
:1012A000651CE9B2012945DDFF2D00D14FE7072478
:1012B0004B445B081C4038E707225A4B2D1A234049
:1012C000144032E7002C1DD1002B7AD14B46002B65
:1012D00000D191E00A000025B5E7013E002E19D1AA
:1012E0004B446CE7FF2C84D1FF25ACE74A46884687
:1012F000D41A05E7002BC5D10A00FF28C8D0050085
:101300004B46A0E7002B49D14B46002B77D00A0073
:10131000FF2598E7FF2C00D043E787E70A00FF246A
:10132000002316E7002C15D1002B57D1FF28E6D15A
:101330004B467BE7002C20D1002B57D04946002993
:1013400053D04B445A0168D50724364A1C40012526
:101350001340EAE6FF28EBD08022D2047642134302
:101360001B2E53DC2025AD1B1A00AB40F2405C1E47
:10137000A34113434B44050021E7002BD8D0494635
:10138000002900D152E78021C9030F4200D14DE767
:101390006046084200D049E74B4647E74846FF25EC
:1013A000002800D14FE78022D203174204D06046C4
:1013B000104201D14B46884601224146FF250A4092
:1013C00041E7484600281FD01A1A500120D54A4646
:1013D0000724D31A1C4088460025A6E6741CC9D0F1
:1013E000F643FF28BCD14B4620E799464B460025E3
:1013F000DB082BE7012340E700220023A9E6802336
:101400000022DB03FF24A4E600251CE70123B1E74B
:10141000002AF1D013000025FCE60025FAE6C046BC
:10142000FFFFFF7DFFFFFFFB41024200C30F490AA0
:10143000120E00207E2A0DD99D2A0CD8802000048F
:101440000143952A0ADC9620821AD1404842002B9B
:1014500000D108007047034A9818FBE7963A91407C
:10146000F4E7C046FFFFFF7F70B500283DD0C317EB
:10147000C5185D40C40F280001F0B4FE9E22121A68
:10148000962A07DCD2B2082833DD08388540680286
:10149000400A23E0992A0BDD052329001B1AD940B5
:1014A00003001B339D402B005D1EAB4119430D0013
:1014B000052801DD431F9D402B000F490B406E079F
:1014C00009D00F263540042D05D004335D0102D527
:1014D0009F220B40121A9B01580AD2B24002D20539
:1014E000400AE4071043204370BD0024002200207E
:1014F000F4E76802400AF1E7FFFFFFFBF0B54F4653
:101500004646D6460C000903C0B5490A470F5E009F
:1015100039431F03DB0F9C4665007B0A570F1F43AF
:101520006D0DE40F760DA146C000B846D200AB1B8E
:1015300064457BD0002B5FDD002E00D0A4E03E0090
:10154000164300D112E15E1E002E00D09EE1871AE4
:101550004346B84280410125C91A4042091A0B028C
:1015600000D431E149024E0A002E00D16EE1300074
:1015700001F038FE0300083B1F2B00DD61E1202253
:101580003900D21A9E40D1409F400E439D4200DD5B
:1015900051E15D1B6B1C1F2B00DD7CE12021C91A72
:1015A0003D0030008F408840DD40791E8F41310082
:1015B00007222843D940002507433A40002A09D092
:1015C0000F233B40042B05D03B1DBB42BF417F4254
:1015D000C9191F000B0200D426E26A1CC64B550530
:1015E0006D0D9A4200D106E1C44AFF080A40530734
:1015F00052023B43120B8EE0002B00D0B8E06B1C74
:101600005B055B0D012B00DC30E1871A4346B842D5
:10161000B641CB1A76429E1B330200D54CE13B000B
:101620003343A1D100220024002570E0002B00DC10
:10163000E5E0002E00D183E0AF4EB54260D08026B9
:1016400036043743B846382B00DC3EE143461343AB
:101650001F007A1E97413F18874280414042091877
:101660000B0200D4B0E0A44B01359D4200D1C3E091
:10167000A24A7B080A4001210F401F435108D307AB
:1016800007221F433A4099E79B4EB54238D0802647
:1016900036043743B846382B00DDDCE01F2B00DC76
:1016A00030E11E004746203EF740BC46202B04D0C8
:1016B0004026F31A46469E403243170063467A1E80
:1016C00097411F43CCE0002B00D104E24346134373
:1016D00000D159E14B07C00818438023C9081B03F8
:1016E000194208D04546ED081D4204D14346D008B2
:1016F000590708432900420FC9007F4D1143C0001C
:101700004B07CA087C49C00803438D4268D01203C6
:101710006D05120B6D0D002112031800130B0A0D3D
:1017200012051A43764B2D0513402B435B00E4074B
:101730005B08234319001CBC90469946A246F0BDA5
:101740003E00164312D05E1E002E00D000E1871826
:101750008742804141444042091801250B0233D59C
:10176000022585E764463300414610001D00C7E7A7
:10177000002D00D0DAE00C000443F3D05C1C00D153
:101780009FE15D4CA64200D12FE1DB43382B00DD09
:1017900066E11F2B00DD83E120240500E41A0F0021
:1017A000DD40D940A0404346A7405B1A441EA041FB
:1017B00098462F433843171ABA4292414346524241
:1017C000991A64463500CAE607223A40002A00D03A
:1017D000F6E64B07CA084849FF083B438D4296D1BD
:1017E0001900114300D19EE1802109030A4312032D
:1017F000120B414D8FE71500002200238BE7002BD1
:1018000000D0C7E06B1C5F057F0D012F00DCF1E00D
:10181000394DAB4200D1B9E085180A0085428941B3
:101820004244494251180722CF076D082F43490807
:101830003A401D00C2E607223049ED1A31403A40D5
:10184000BCE63E002838864000279FE6380001F0BD
:10185000C9FC20308EE6434613431F007A1E974191
:10186000C71BB84280414042091A78E60E003B008F
:1018700006431343002D61D1002E00D0F4E0002B6D
:1018800000D11BE164463900100039E71A4FBB4212
:101890007AD03300FFE630001F3DE840202B03D014
:1018A0004021CB1A9E4037437B1E9F4107220743AE
:1018B0003A400021002589E7171A4346BA42B6414B
:1018C000591A76428E1B64464EE61F2B00DDADE0B2
:1018D00020264746F61AB740B9461700B246DF4001
:1018E0004E463E4337005646B240561EB24117435D
:1018F0004246DA408918AEE6FF070000FFFF7FFF8F
:10190000FFFF0F8020264746F61AB740B94617005A
:10191000B246DF404E463E4337005646B240561E62
:10192000B24117434246DA40891A99E77F4CA642F2
:101930005BD0802424045B42214327E7002E0CD196
:10194000002B00D1CBE0644639001000774DD7E67C
:10195000764FBB4218D0330075E6002B14D04B07EE
:10196000C00818438023C9081B03194207D0FC088C
:101970001C4204D17907D0080843E14621004C46B7
:10198000420FC9001143C000684DB9E61D00002296
:101990000023C0E6002D5BD10D00054300D1E2E637
:1019A0005D1C00D1B0E0614DAE421FD0DB43382B4F
:1019B00071DC1F2B00DD96E020250F00ED1AAF40F3
:1019C000B9460700AA46DF404D463D432F00554625
:1019D000A840D940451EA84188440743BF189742F4
:1019E00092415142414435003AE664463500414651
:1019F000100085E60B000343002D00D063E6002BAA
:101A0000F5D04346134300D17AE6871887428041D8
:101A100007224144404209183A400B0200D4D5E65F
:101A2000434B01351940C9E5380069E61E004746B9
:101A3000203EF740BC46202B04D04026F31A4646F1
:101A40009E403243170063467A1E97411F4302E6C9
:101A5000364DAE42CAD080252D045B422943A6E70D
:101A60000843411E8841A6E6002B00D148E6871AAC
:101A70004346B842B641CB1A76429E1B33024BD541
:101A8000171A4346BA429241591A5242891A0722FA
:101A900064463A4092E501430F00791E8F419DE76D
:101AA0001C000F00203CE740202B03D04024E31A09
:101AB00099400843411E884138437CE600220024B7
:101AC00025E6171A4346BA429241591A5242891AD8
:101AD0006446350043E541461000144D10E680226F
:101AE0000024120380E61D000F00203DEF40BC469D
:101AF000202B03D04025EB1A99400843070063468A
:101B0000781E87411F4369E7871897429B414144EC
:101B10005B42C9183500A3E53B003343CED0072212
:101B200031003A4052E600231A00F4E5FF070000B6
:101B3000FFFF7FFFF0B55746DE464E464546E0B50F
:101B4000834607000E03480085B092461C00360B02
:101B5000400DCD0F002800D19DE0954B984239D023
:101B60008023F6001B041E43924A7B0F33439946A1
:101B7000944603006344009300230026FF00029371
:101B800023031B0B98466300E40F52465B0D019440
:101B900000D1B3E086498B4200D19EE04246D1009D
:101BA000802212040A435146490F11438B46814952
:101BB00052468C4600996344CB1A0021D200009310
:101BC0002B0063409A460F2E00D905E17A4BB600F0
:101BD0009B599F465B463343994600D0B8E00223A9
:101BE0000826002700900293CAE7CB463A000299E4
:101BF0000195019B9A46022927D0032900D180E252
:101C0000012944D06D49009B8C4663441C00002C84
:101C100038DD530700D013E2D2085B46DB0109D55B
:101C20005946674B19408B468021C9008C46009B62
:101C300063441C00634B9C4207DC5B4664055F0702
:101C40005B0217431B0B620D02E000230027584A7A
:101C500000211B031C0B0B0D1B05234314055A4AC3
:101C6000380013401C4353466400DB0764081C43E0
:101C7000210005B03CBC90469946A246AB46F0BD5B
:101C80000122524201231B1B382B00DCADE1002254
:101C900000230027DCE75B46334399465ED0002EE5
:101CA00000D18AE1300001F09DFA03000B3B1C2BB0
:101CB00000DD7BE11D22D31A5A460100DA400839C3
:101CC0008E4013005F46334399468F403F4B0026BA
:101CD0001B1A00930023029352E7414653460B43DD
:101CE0003B499B468C46009B634400935B46002B1C
:101CF0003BD1022300221E43022161E743461343E6
:101D00009B4637D04346002B00D162E1404601F0AC
:101D100069FA03000B3B1C2B00DD53E10200414636
:101D2000083A914088461D21CB1A5146D9400B00F4
:101D300041460B439B46534693401A00009B25495E
:101D40009C46604403008C4663440093002137E7BF
:101D50000323B14600900C26029311E70023009361
:101D600001330426002702930AE70323C3461E43D8
:101D7000032125E701331E430022012120E7002330
:101D80009A46802300271B03094A61E780234946BE
:101D90001B03194200D1E2E05946194200D0DEE0AF
:101DA0000B431B0317001B0BA246014A50E7C0461A
:101DB000FF07000001FCFFFF34CD0000FF0300001F
:101DC000FFFFFFFEFE070000FFFF0F800DFCFFFF7F
:101DD00001F8FFFFF3030000D94500D9CBE000D1A3
:101DE000C6E03C0048460027009B013B00935B4651
:101DF000160E1B021E431302984633041B0C994611
:101E0000310C0191FEF710FA4A4642430B04210CB3
:101E1000050019438A4207D98919013D8E4203D82A
:101E20008A4201D9851E8919881A0199FEF7FCF9A1
:101E300009048C464A46210464464243090C0300C7
:101E400021438A4204D98919013B8E4200D8F1E02E
:101E50002D041D43AB464346891A4246280C120402
:101E60001D0C5B46140C22001B041B0C5A430394EC
:101E70006B434443029568431B19150CEB189C42B5
:101E800003D980246402A44660441C0C15041B047E
:101E90002D0C20185D19814277D373D00C1AA24AF9
:101EA0007D1BAF42BF419446009B7F426344E01BD1
:101EB0001C00864200D1DBE00199FEF7B5F94A46E5
:101EC00042430B04290C070019438A4207D9891998
:101ED000013F8E4203D88A4201D9871E8919881A88
:101EE0000199FEF7A1F909044A46894629044D469D
:101EF0004243090C030029438A4207D98919013B4F
:101F00008E4203D88A4201D9831E89193F04891A57
:101F10003A00039F1A43380013041B0C58438146B0
:101F20000298150C6F43434345434846000C8446D2
:101F3000DB1963449F4203D98020400284466544F4
:101F400048461F0C00041B04000C7D191818A942F8
:101F500000D284E000D17FE001231A4357E68023BA
:101F60004A461B0313431B031B0BAA466F4A6FE62B
:101F7000BA4200D935E74B46DC0758087B081C43BA
:101F8000FF0734E70024AF4289D247444745A441C4
:101F90005B466442A4196418013BA6421ED2A042CB
:101FA0006DD800D1B6E0241A9B4678E703005A4664
:101FB000283B9A400027914688E6584601F012F9DE
:101FC000203072E603005246283B9A409346002296
:101FD000B4E6504601F006F920309AE6A642E2D176
:101FE000B845DCD9341A9B4659E71F2B65DC504CA9
:101FF0000099A4465C46614408008C401100824070
:10200000D940501E82410C4314435A46DA40130013
:10201000620709D00F222240042A05D02200141D95
:102020009442894149425B181A0262D50122002379
:1020300000270DE68A4200D80AE7831E891907E7C0
:102040000F231340042B00D1E6E5171D9742924160
:1020500053429B44FA08E0E5002800D1D7E5711807
:10206000531EB14227D3A94215D358D01A0073E7A3
:10207000002B00DC04E6012300229B44CDE5022373
:102080004744474589415B429C46494289190C199E
:10209000E344241A03E743465F0047459B41B846A3
:1020A0005B429E19023A8919A94200D054E7404583
:1020B00000D051E7ABE51A00F6E71F215F46494221
:1020C0000C1BE740202B07D01A49009B8C46634429
:1020D00018005B4683401A43501E82413A4307274B
:1020E0000023174009D00F210023114014000429B8
:1020F00095D122005F075B021B0BD2081743002219
:10210000A6E5802359461B030B431B0317001B0B3B
:10211000064A9DE5BD42B2D89B460024BFE68045F5
:10212000B9D31A00C3E7C046FF030000FF07000051
:102130001E0400003E040000F0B54F464646D64659
:102140008446C0B58046194E18030F034D00000B9E
:102150005C0082463F0B6D0DC90F9146640DDB0F8D
:102160000120B5420AD0B44203D0A54201D157455F
:102170000CD01CBC90469946A246F0BD66463E4334
:10218000F7D1AC42F5D154461443F2D10120C845F1
:10219000EFD1994207D0002DEBD163461F433800A1
:1021A000471EB841E5E70020E3E7C046FF0700000F
:1021B000F0B54F464646D6464D00C0B50E03C90F92
:1021C0008A462C491F035C008046360B6D0D9146F4
:1021D0003F0B640DDB0F8D421ED08C4216D0002DBC
:1021E0001ED130438446002C01D13A4323D06246AD
:1021F000002A1AD09A4529D05146022001390840B8
:1022000001381CBC90469946A246F0BD39001143E6
:10221000E5D002204042F4E73043FAD1AC420FD07F
:10222000002C0FD13A43E7D00CE00122013B93434D
:1022300018000130E5E763460020002BE1D0DBE722
:102240003A43E6D19A45D7D1A542D5DCA54205DB74
:10225000BE42D1D808D00020BE42D2D2504601237F
:10226000013898430130CCE7C845C5D80020C8459F
:10227000F4D3C6E7FF070000F0B54F464646D64602
:102280004D00C0B50E03C90F8A462E491F035C00DE
:102290008046360B6D0D91463F0B640DDB0F8D4272
:1022A00018D08C4211D0002D18D130438446002C18
:1022B0001ED13A431CD163460020002B30D051463A
:1022C00002200139084001382AE039001143EAD0E0
:1022D000022025E03043FBD1AC4226D0002C26D191
:1022E0003A4324D15146022001390840013817E011
:1022F0006246002A0FD09A45E1D1A54205DBBE42D5
:10230000DDD819D00020BE420AD250460123013840
:102310009843013004E00122013B9343180001304F
:102320001CBC90469946A246F0BD3A43D0D19A458E
:10233000C5D1A542C3DCE0E7C845C0D80020C845E8
:10234000E3D3EDE7FF070000F0B55746DE464E4603
:102350004546E0B5834606000F03480087B0924625
:102360001D003F0B400DCC0F002800D16FE0DE4B6D
:10237000984238D08023FF001B041F43730F3B4358
:102380000193DA4B0027994600239B46F6008144CF
:102390002B0369001B0B52469846490DED0F00298F
:1023A00000D185E0D04B994200D173E04346DA007A
:1023B00080231B0413435246CC48520F84461343D8
:1023C000524600206144D2008944210069400091B6
:1023D0008C46012149448A460F2F00D990E0C44918
:1023E000BF00CF59BF465B463B43019300D06AE133
:1023F00002230827002681469B46C9E7320058463B
:10240000019B61460091022800D175E0032800D1AC
:10241000FEE1012800D02CE1002300270026002542
:102420003F032A0D3F0BB34812053A4302401B05F8
:102430001343009A5B00D1075B080B43300019007F
:1024400007B03CBC90469946A246AB46F0BD5B4601
:102450003B43019300D12FE1002F00D1A5E13800CB
:1024600000F0C0FE03000B3B1C2B00DD96E11D229B
:10247000D31A5A460100DA405E4608398F401300ED
:102480008E403B4301939C4B00271B1A9946002327
:102490009B467DE7414653460B4393498C46E144B6
:1024A000002B00D01AE102220220174300228CE701
:1024B000134300D10DE14346002B00D181E140469A
:1024C00000F090FE02000B3A1C2A00DD72E10100D0
:1024D000434608398B4098461D239A1A5346D340E9
:1024E0001A004346134352468A404946081A824915
:1024F00089468144002068E77B4B002700268EE751
:10250000140C1204120C1100370C3604350C7943EC
:1025100028008C462E0060436044834656432100C9
:10252000300C80465846794340440291844506D990
:102530008846802149028C46E04441460291360497
:10254000010C360C00048B4681191E0C1B041B0C5D
:102550000391190079438C46280075436544A846C9
:102560005843050C45447743A94203D980214902C9
:102570008C466744290C8C4639000004000C2D045D
:102580002D186144AB4405915946049101990F04FB
:102590003F0C080C390051434243904602008C46E0
:1025A000090C8B4662437C4344445C44A04503D9F8
:1025B0008021490288464244210C8846614609042C
:1025C000090C8C4639005943434370437E430F0C3A
:1025D000F6182404BE19644442448C46B34203D91D
:1025E00080235B0298464044029B61469846049BC8
:1025F000370443449B46AB45AD416B420D040599FE
:102600002D0C8C467F196744FD18A8465D462D1990
:10261000A542A44193466442A446C344DC448F428D
:10262000BF4198459B4193459241A445A4415B42DB
:102630007F421F43360C52426442BF192243BF18E7
:10264000624638184302D20D039913436A020A43C3
:10265000501E82416146ED0D2A434E023243D9019C
:1026600000D4B3E00126500832400243DE07324373
:102670005B08224C5444002C62DD510709D00F2026
:102680001040042805D0101D9042924152429B18E0
:102690000200D90104D580241948E40003405444C1
:1026A0001848844200DD27E75E075B02D2081F0B53
:1026B000630516435B0DB2E60023994601330427F8
:1026C00000269B4664E60323019781460C279B4620
:1026D0005EE6012201201743002276E60323032051
:1026E0001F43434671E6C046FF07000001FCFFFFA1
:1026F00074CD0000FFFF0F800DFCFFFFFF03000003
:10270000FFFFFFFEFE0700000023802700933F032A
:102710000026434B83E6019B3200A446584670E6F0
:10272000AC466EE6802701993F0339422DD03B42EB
:102730002BD11F433F033F0B00951600384B6EE62D
:1027400001252D1B382D00DD66E61F2D40DC3548A8
:102750001C005044160082408440EE40501E8241CE
:1027600034431443EB40620709D00F222240042A6D
:1027700005D02200141D9442804140421B181A02C9
:102780003ED501230027002649E68027019B3F0311
:102790001F433F033F0B0094214B40E603005A4682
:1027A000283B9A40002601926DE6584600F01AFD3B
:1027B000203057E603005246283B9A40130000227F
:1027C00093E6504600F00EFD20307BE6CA4650E707
:1027D0001F201E004042041BE640202D03D0124C57
:1027E0005444A3401A43501E824132430726002717
:1027F000164009D00F200023104014000428B9D13E
:1028000022005E075B021F0BD2081643002306E678
:1028100080273F031F433F033F0B1600004BFEE59D
:10282000FF0700001E0400003E040000F8B55746F4
:102830004E464546DE460C000903E0B5490A460F00
:102840005F0031431E03DB0F760A9B46530F334371
:10285000C84E6500C000E40FD2006D0DA24681464F
:102860007F0D9C469046B74200D1B9E05B460126F9
:1028700073409B46EE1BA34500D183E0002E63DD31
:10288000002F00D0B1E06346134300D123E1731E53
:10289000002B00D0BAE1861A6346B0428041012580
:1028A000C91A4042091A0B0200D447E149024B0AF7
:1028B00098464346002B00D189E1404600F092FC47
:1028C0000300083B1F2B00DD7CE120223000D21AE0
:1028D0004146D040994002009E400A439D4200DD9F
:1028E0006AE15D1B6B1C1F2B00DD94E120211000B1
:1028F0003500C91A8E40DA408840DD40711E8E4195
:10290000110007222843002506433240002A09D03F
:102910000F233340042B05D0331DB342B64176421A
:1029200089191E000B0200D43DE26A1C914B55052B
:102930006D0D9A4200D119E18F4AF6080A405707F7
:1029400052023743120B9BE0002E00D0C5E06E1CF4
:102950007605760D012E00DC48E16746861ACB1B12
:10296000B042BF417F42B8461F004346FF1A3B00BA
:10297000B8461B0200D55FE137439AD100220024FC
:10298000002579E0002E00DCFAE0002F00D18DE078
:10299000784B9D4267D0802367461B041F43BC468B
:1029A000382E00DC52E1634613435A1E93411E1831
:1029B00086428041404209180B0200D4BEE06D4BB4
:1029C00001359D4200D1D2E06B4A73080A400121D3
:1029D0000E401E435108D30707221E43324095E79D
:1029E0001E00164300D045E740E7624B9D423AD0B7
:1029F000802367461B041F43BC46382E00DDEBE0F6
:102A00001F2E00DC3AE133006746203BDF403B00ED
:102A1000202E05D04027BF1B6646BE40324390465D
:102A20004646721E96413343DAE0002B00D114E291
:102A30006346134300D168E180234E07C008C908EC
:102A40001B030643194208D06046C008184204D14F
:102A500063460100D2085E071643F3009946C90099
:102A6000720F444D11434B46DE08424B4F0737432C
:102A7000CA089D4200D16EE012036D05120B6D0D68
:102A800000211203130B0A0D12051A433B4B2D05AF
:102A900013402B435B00E4075B0823433800190015
:102AA0003CBC90469946A246AB46F8BD63461343EC
:102AB00011D0731E002B00D007E18618864280419A
:102AC00061444042091801250B0237D502257BE7F6
:102AD0003E00614691463500C5E75C46002D00D0BA
:102AE000E1E00B000343F3D0731C00D1ACE1214BB8
:102AF0009F4200D13AE1F343382B00DD6FE11F2BF9
:102B000000DD8CE120250E00ED1AAE40B046060037
:102B1000AA46DE40454635432E005546D940A840DA
:102B20006346451EA8415B1A9C463043161AB242C2
:102B3000924163465242991A3D00B4E60722324060
:102B4000002A00D0E4E60B4BF6084F073743CA08CB
:102B50009D4200D090E73B00134300D1A6E18023C3
:102B60001B031A431203120B024D89E715000022C2
:102B7000002785E7FF070000FFFF7FFFFFFF0F80B3
:102B8000002E00D0C7E06B1C5E05760D012E00DC28
:102B9000F0E0C84DAB4200D1B9E085180A0085428B
:102BA00089416244494251180722CE076D082E43DD
:102BB000490832401D00A9E6BF49ED1A114007221D
:102BC0003240A3E6320028388240002686E63000F4
:102BD00000F008FB203073E6634613435A1E93410E
:102BE000C61AB04280414042091A5CE60E006746B0
:102BF00006431743002D5ED1002E00D0F3E0002FD6
:102C000000D11EE15C46614691462CE7A94FBE42C9
:102C10007BD01E00F1E610001F3DE840202B03D0C2
:102C20004021CB1A9A401643731E9E410722064349
:102C300032400021002583E7161A6346B2428041E4
:102C4000591A40420B1A98465C4632E61F2E00DDA8
:102C5000ABE02027BB1B9A4663465746BB409946CC
:102C600013004F46F3401F433B005746BA40571EE0
:102C7000BA4113436246F240891898E62027BB1BED
:102C80009A4663465746BB40994613004F46F34069
:102C90001F433B005746BA40571EBA411343624692
:102CA000F240891A9CE7834B9F425FD080252D0418
:102CB0007342294320E7002E0CD1002F00D1D0E031
:102CC0005C46614691467B4DCDE67A4FBE421CD0B4
:102CD0001E0065E6002F18D0C0084E07064380206E
:102CE000C9080003014208D06346DC08044204D14D
:102CF0002100DA46D2085E071643F3009946012404
:102D00005346C900720F11431C406A4DABE61D00CB
:102D100000220027B4E6002D59D10B00034300D157
:102D2000D6E6731C00D1B2E0624B9F421ED0F34343
:102D3000382B6FDC1F2B00DD97E020250E00ED1AED
:102D4000AE40B0460600AA46DE40454635432E005A
:102D50005546A840D940451EA8418C440643B618A4
:102D600096429241514261443D0025E63D00614654
:102D7000914678E60B000343002D00D055E6002B6A
:102D8000F5D06346134300D16DE686188642804134
:102D900061444042091800220B0200D4D0E6464BA1
:102DA00001351940B2E5B1465DE633006746203B88
:102DB000DF403B00202E05D04027BF1B6646BE40AB
:102DC000324390464646721E96413343EFE5394BF7
:102DD0009F42CBD080252D0473422943A8E70843A6
:102DE000411E8841A2E6002F00D13CE66346861AC8
:102DF000CF1AB0429B415B42FB1A98461B024ED54C
:102E0000161A6346B2429241591A5242891A5C46D6
:102E100000227BE501430E00711E8E419FE71D00DD
:102E20000E00203DEE40B046202B04D04025EB1A8A
:102E300099400843814648464346411E884118430D
:102E400074E60022002417E6161A6346B242924145
:102E5000591A5242891A3D0025E561469146154DA1
:102E600001E680220024120379E61D000E00203DB9
:102E7000EE40B046202B04D04025EB1A9940084381
:102E800081464E464346711E8E411E4367E78618B3
:102E900096429B4161445B42C9183D008CE5474620
:102EA0003743CED007224146324049E600273A0058
:102EB000E6E5C046FF070000FFFF7FFF70B50C4E40
:102EC0000D031C0349005B002D0B490D240B5B0D0A
:102ED000B14208D0064900208B4203D114432000A0
:102EE000441EA04170BD05430120002DFAD1F1E739
:102EF000FF07000030B5144D0A034B00120B5B0DA9
:102F0000C90F0024AB4211DD104CA34210DC802419
:102F1000640322430E4CE41A1F2C0CDD0D48C31A27
:102F2000DA4013005C42002900D11C00200030BDB3
:102F3000094BCC18FAE7094DE040AC4663449A408F
:102F400013000343EEE7C046FE0300001D0400002B
:102F50003304000013040000FFFFFF7FEDFBFFFFC1
:102F600070B500282DD0C317C5185D40C40F2800C8
:102F700000F038F9154B1B1A5B055B0D0A2815DDAF
:102F80000B38854000222D032D0B002110002D034E
:102F90000A0D2D0B12052A430D4D1B052A40134324
:102FA0005B00E4075B082343190070BD02002900A1
:102FB000153291400A000B21081AC5402D032D0B34
:102FC000E3E70024002300250022DEE71E040000C2
:102FD000FFFF0F8010B5041E25D000F003F9144B3D
:102FE0001B1A5B055B0D0A2812DD0B38844000229A
:102FF0002403240B0021100024030A0D240B1205C6
:1030000022430C4C1B05224013435B00590810BDA2
:1030100002002100153291400A000B21081AC44019
:103020002403240BE6E7002300240022E2E7C04645
:103030001E040000FFFF0F804100090E4B1C70B5FD
:10304000DBB24602750AC40F012B14DDE0239B009E
:103050006D07360BCB1800210A0D280012051C4DF8
:1030600032435B052A405B0813435B00E4075B08BF
:103070002343190070BD002914D1002D1ED0280053
:1030800000F0B0F80A281CDC0B232A001B1ADA40D7
:10309000030015339D400F4B12031B1A5B05160BE3
:1030A0005B0DD8E7002D06D0320B802636036D0766
:1030B0001643094BCFE7084B0026CCE70023002638
:1030C000C9E703002A000B3B9A400025E3E7C0460E
:1030D000FFFF0F8089030000FF070000F0B54C00E0
:1030E000640D0B03621C5B0A460F5205C90F1E4399
:1030F000C500520D012A29DD374BE718FE2F1CDCD5
:10310000002F3BDD8001431E98410722F3006D0F25
:1031100003432B431A40002A04D00F221A40042AEA
:1031200000D004338022D2041A4024D00137FAB2EE
:10313000FF2F02D09B01580A01E0FF22002040022D
:10314000D205400AC90710430843F0BD3543002C9F
:1031500004D1002D0AD100220020F0E7002DECD090
:103160008020C0033043FF22E9E7002400235B02F4
:10317000580AE2B2E3E7DB083C00F8E73B0017330C
:10318000F3DB80231B0433431E26F61B1F2E14DDA6
:1031900002225242D71B1A00FA401700202E04D0F8
:1031A0000E4A94466444A3401D432B005D1EAB4170
:1031B00007223B431A400027ADE7094A2800A2181E
:1031C000954093406C1EA541F04007222B430343DA
:1031D0001A4000279FE7C04680FCFFFFA2FCFFFFCC
:1031E00082FCFFFF1C2101231B04984201D3000C29
:1031F00010391B0A984201D3000A08391B0998426A
:1032000001D30009043902A2105C40187047C0467F
:10321000040302020101010100000000000000009F
:1032200010B5002903D1FFF7DDFF203002E0081CB4
:10323000FFF7D8FF10BDC0460023C25C0133002A4F
:10324000FBD1581E704710B508F048FF00F02AF86F
:1032500010BD0000002110B5080007F099FE022102
:103260000D4808F01BF80D4B01221978002800D1F9
:1032700004220A4302201A7000F03EF8084C206035
:1032800003F0CEFC022000F037F8206003F00CFEC3
:1032900000F0FAF9F6E7C04600600B408501002017
:1032A00080010020FA2110B50F4B89001868FCF747
:1032B00035FF0E4B0138984215D80D490D4A48602C
:1032C000C020136A00061B021B0A0343136200237B
:1032D0008B6007330B608021136AC9051B021B0A30
:1032E0000B43136210BDFEE7F8000020FFFFFF0054
:1032F00010E000E000ED00E0F7B5D94E04003778AB
:10330000042F27D0012F27D004252F4222D00024BC
:10331000D44B22000821D4481C7007F083FF220000
:103320004021D24807F07EFF22002900CE4807F056
:1033300079FF22002021CC4807F074FF8022CC4B7B
:103340009205DA67BFF34F8FBFF36F8F200008F04D
:103350000FFA34700020FEBD3A004021002007F033
:10336000ADFF00220821C04807F0A2FF0022402143
:10337000BE4807F09DFF3A000821BB4807F052FF06
:103380003A004021B94807F04DFF642000F0D8FA18
:103390003A004021002007F091FF3A000821B2488E
:1033A00007F086FF00224021B04807F081FF3A0075
:1033B0000821AD4807F036FF3A004021AB4807F03E
:1033C00031FF380000F0BCFA00220421A64807F0C3
:1033D00029FF00222021A44807F024FF02222021F7
:1033E000032007F06BFF0921A24800F053FDA24B18
:1033F0009C4DC018802380B29B00984200D92F704A
:103400002F78002F35D101222021032007F056FF0D
:1034100001220421944807F04BFF3A0020219248F2
:1034200007F046FF012204218F4807F0FBFE01222E
:1034300020218D4807F0F6FE3A0008218A4807F05F
:10344000F1FE3A004021894807F0ECFE02224021BB
:10345000380007F033FF0621864800F01BFD864B3D
:10346000C018802380B29B00984272D9FF3BFF3B7B
:103470002B702F78032F32D100F02CFA012201900B
:103480004021002007F01AFF01220821764807F0AA
:103490000FFF00224021754807F00AFF0122082192
:1034A000714807F0BFFE01224021704807F0BAFEC4
:1034B000002204216C4807F0B5FE002220216A4852
:1034C00007F0B0FE02222021380007F0F7FE0921A4
:1034D000684800F0DFFC0F283DD804232B702F78BC
:1034E000042F00D087E0032000F02AFA002C4ED1F0
:1034F00001224021200007F0E1FE012208215A4864
:1035000007F0D6FE22004021584807F0D1FE0122E4
:103510000821554807F086FE01224021534807F054
:1035200081FE01222021032007F0C8FE220039007D
:103530004D4807F0BDFE002220214B4807F0B8FEA1
:1035400001223900484807F06DFE0122202146483B
:103550004FE003238CE700F0BDF9019BC01A474BF5
:103560009842B4D9002208213F4807F05BFE0022B0
:1035700040213E4807F056FE002204213A4807F059
:1035800051FE00222021384807F04CFEA7E7012C0D
:1035900044D122002021032007F090FE22003900B0
:1035A000314807F085FE002220212F4807F080FED9
:1035B000220039002C4807F035FE220020212A483D
:1035C00007F030FE22004021002007F077FE2200A5
:1035D0000821254807F06CFE22004021234807F00F
:1035E00067FE22000821204807F01CFE220040212F
:1035F0001E4807F017FE2B78013B012B09D88022CB
:103600001F4B92051A60012008F0B2F81D4800F027
:1036100019F902233278134333709BE6022CEAD166
:1036200001224021002007F049FE012208210E4816
:1036300007F03EFE002240210C4807F039FE01222F
:103640000821094807F0EEFD01224021074807F054
:10365000E9FD01222021032007F030FE012266E768
:10366000850100208401002000600B4000000B4019
:1036700004E100E00000014000FEFFFF140500002F
:1036800000E100E088010020324B10B5002B06D08D
:10369000314800F0E7FE002801D000E000BF2F4BCA
:1036A000002B06D02E4800F0DDFE002801D000E0FF
:1036B00000BF2C4B002B06D02B4800F0D3FE002877
:1036C00001D000E000BF294B002B06D0284800F0B5
:1036D000C9FE002801D000E000BF264B002B06D019
:1036E000254800F0BFFE002801D000E000BF234BBA
:1036F000002B06D0224800F0B5FE002801D000E0E3
:1037000000BF204B002B06D01F4800F0ABFE002866
:1037100001D000E000BF1D4B002B06D01C4800F07C
:10372000A1FE002801D000E000BF1A4B002B06D0FC
:10373000194800F097FE002801D000E000BF174BA9
:10374000002B06D0164800F05AF8002801D000E0FF
:1037500000BF10BD000000000405002000000000B4
:1037600020050020000000003C05002000000000B3
:103770005805002000000000740500200000000033
:103780009005002000000000AC05002000000000B3
:10379000C805002000000000E40500200000000033
:1037A0008801002013B56B460268D971073354684D
:1037B00019000122A04716BD3F20704713B56B4684
:1037C000DC1D200000F0B2FA012801D1207816BDDE
:1037D00001204042FBE713B56B46DC1D01212000B0
:1037E00000F086FA002801D0207816BD0120404262
:1037F000FBE710B500F0B6FA0128FBD110BD10B5FB
:1038000000F0A8FA10BDF7B54D424D4107000E007B
:10381000019200F0ADFAEDB20124002803D000F0CF
:10382000AEFA4440E4B2002D0AD1002C08D101992F
:10383000300000F013FA002801D101237B60FEBDA7
:103840000020FCE7044B10B51A78002A03D101329E
:103850001A7000F0BDFA10BDA1030020FA2370B564
:1038600080220025084C9B00A360084B656008334C
:10387000290052000648236009F0FDF884239B00CC
:10388000E5500433E55070BD88010020B4CD000040
:1038900098010020024A1368013313607047C04644
:1038A000A403002010B500F070F800280DD102210B
:1038B000064807F0F3FC064B01221978002800D1D6
:1038C00004220A431A70FFF7E5FF10BD00600B40A9
:1038D00085010020014B18687047C046A4030020F2
:1038E000F7B5144801238446134A144996684C6876
:1038F0000568A40E1C40019390684B68019F9B0EC5
:103900003B4067463F689C420FD1BD420DD1864285
:103910000BD36419FA2550683C210130801BFCF759
:10392000FDFBAD006C430019FEBD3D001C00060010
:10393000E2E7C046A403002010E000E000ED00E054
:10394000F7B58025070000260E4C6D02A368019391
:1039500023682B432360BE420BD380256D02A368EE
:10396000019A934204D900F00FF823682B42F6D055
:10397000F7BD00F009F823682B405A1E9341F61852
:10398000E9E7C04610E000E0704700207047000003
:103990000123054A1360054A1360054A136000229B
:1039A000044B1A607047C04610000020140000202D
:1039B0000C000020B00300200122014B1A60704768
:1039C0000C000020704700000122014B1A60704774
:1039D000100000200122014B1A60704714000020E3
:1039E0008388002B43D14278C388212A34D0222AED
:1039F00010D0202A3BD11E4AC2611A1C082B00D9C4
:103A0000082292B202620222431DDA77194B013A70
:103A10001A7008E0002B06D10221421DC361036227
:103A2000D177144A13708278134B1A70104A1168B8
:103A30009622D20091421AD11B78DB0717D480233B
:103A40000E4A9B051A60BFF34F8F0D4B0D4ADA608B
:103A5000BFF34F8FC046FDE7054AC2611A1C082B11
:103A600000D90822012392B202620530C377704761
:103A700004000020A0030020A8030020F5FAAA55A6
:103A800000ED00E00400FA058288C378022A15D10F
:103A9000212B02D0222B0BD070470F4B1B68C26822
:103AA000D318C3610923036201230530C377F3E709
:103AB0000A4B1B68C3610A4B1B88F4E7032AEBD14E
:103AC000212B06D0222BE7D1064B1B68C361064B86
:103AD000F2E7064BE2E7C046144F0020204F0020DB
:103AE0001C4F0020304F0020284F0020244F002082
:103AF00010B5446802680300002094420BD0986817
:103B0000825C01200A701A68D96801321A608A4200
:103B100001D100221A6010BD030010B54268DC68B4
:103B200001320068A24214D10200501E82410020DE
:103B3000D2B282420CD05A68986881545A68D968C7
:103B400001325A605A6801208A4201D100225A602B
:103B500010BD5A680132121AE7E7F7B50E000C00E3
:103B600001908D18A71BAC4206D021000198FFF7E9
:103B7000BFFF01340028F5D13800FEBDF7B50700BE
:103B80000D000C008B180193019B661B9C4206D014
:103B900021783800FFF7C0FF01340028F4D130004D
:103BA000FEBD426803689A4202D34068C01A70475B
:103BB0004268C0681018F9E770B50E4E4022310017
:103BC00007F0A2FF0C4C0D4D20602800FFF7E9FF25
:103BD000802322685B00181A904205D922683100C0
:103BE0002800FFF7CBFF70BD8020000107F05EFECC
:103BF000F9E7C046B4030020AC030020F403002022
:103C000000220C4B1A605A600B4A9A6080225200C4
:103C1000DA600A4B83600A4B83610A4B43620A4BAA
:103C200003630A4B43630A4B83630A4BC3630A4B28
:103C300003647047F403002004040020913900005D
:103C4000893A0000E1390000B9390000C5390000A7
:103C5000B93B0000C9390000D5390000F7B50700AD
:103C600000200D00814237D001901C4E3368002B9C
:103C70000AD11B4B1B491868FCF750FA1A4C4443F5
:103C8000E408316800291FD000232C003360402D48
:103C900000D9402439002200012007F0C3FE019B17
:103CA0002D1B1B183F180193002DDED1402809D190
:103CB0000E4B1D6030680128FCD100210A003160E4
:103CC00007F0B0FE019807E0013CDAD201200A00BB
:103CD000306007F0A7FE2000FEBDC0460C000020AB
:103CE000F800002040420F0070110100B0030020D6
:103CF000F8B50D4C0600636822680D00002793425A
:103D00000FD02000FFF74DFF0200A84200D92A0083
:103D100031002000FFF721FF07008020000107F09D
:103D200083FD3800F8BDC046F403002010B5084AF2
:103D30005368146851680023A14206D05168936803
:103D40005B18013B1B7803700123180010BDC046AF
:103D5000F403002010B50248FFF723FF10BDC04652
:103D6000F4030020014B18687047C0460C00002087
:103D700010B508F011F9431E9841C0B210BD10B53E
:103D800008F00AF9063843425841C0B210BD00009D
:103D900010B5024807F010FF10BDC046344F002098
:103DA00007B500236A461371C022920000926A464A
:103DB0006846537107F074F9012007F05DF901209E
:103DC00007F064F90028FAD0012007F07DF907BD5B
:103DD00030B585B001AC0C220021200008F04BFE6C
:103DE000802304255B4263716570A268813361683A
:103DF000019807F0FBF9FFF7D3FF1E4C1E4A230082
:103E000088331A601D4A1378012B22D15278002A78
:103E100029D11B4A13731B4800F014FF1A48FFF7FF
:103E2000EFFE200007F0BAFE8022184B92051A60C0
:103E3000C72080001A5816491140C02212020A43B6
:103E40001A50012007F094FC200008F083F805B018
:103E500030BD022BDFD15278002ADAD0012ADAD124
:103E6000074B1D73D7E7022AD5D1054B01321A73D0
:103E7000D1E7C046344F0020C84F00201E4F00201D
:103E8000AC0000203C4F0020704F002000E100E01B
:103E9000FF00FFFFF0B5002685B002AB03AD2E801A
:103EA0003200DE802423040007F093F8394B1F789A
:103EB000012F03D133003A0031001FE0002F53D10E
:103EC0000126354B31001A00783318787932127890
:103ED0000309000799400192000F022207F0EEF952
:103EE000019B20009A002D4B9B1859783200C9087D
:103EF000242307F06EF83B0002223900284807F01F
:103F00005BF80121200007F082F80421200007F06F
:103F100097F80028F9D00421200007F098F8002134
:103F2000200007F07EF81B4B28801B78012B13D054
:103F30000121200007F075F802ABD880DA882B88C1
:103F40009A4223D92B8802AAD188180389B2C01AB1
:103F5000FCF76EF980B228802000002107F07AF883
:103F6000288880B205B0F0BD30212000394007F02C
:103F70007CF8242301220F21200007F02AF80121D8
:103F8000200007F067F83300022295E7054B2B80ED
:103F9000E2E7C0461800002044EA000080E9000083
:103FA00000000140FF0F0000F7B5C7B20D001E2F43
:103FB0006FD8464BB900CA5C1607340F00940F2C1B
:103FC00067D0032D65D8424E6403A4190126120957
:103FD00096405B18DA780196D207D20F9B78002AB8
:103FE00058D00105090FC9183A4E890071580F269B
:103FF000090A314006291DD1002A50D0010A31405A
:10400000C918344E890071588C460F2166460E40FF
:104010008E420FD0002A47D0000A0840C0182D4B0E
:1040200080001B5C1807000F012211001B0999403A
:1040300007F044F9254BBF00DF197B78FF2B0CD02C
:10404000254A9B009B5C1807000F0F2805D0012212
:1040500011001B09994007F031F9012201990098DC
:1040600007F02CF96B469E88022D25D0032D27D012
:10407000022231002000012D24D007F0DCF80122BB
:104080003100200007F0E8F800223100200007F09E
:10409000C9F8F7BD99008C4610496646A6E7990015
:1040A0008C460E496646AEE79A0013000B49885CC1
:1040B000CB5C0007000FB7E7002231002000DCE7EF
:1040C0000122FAE707F0B7F82A00DEE744EA000029
:1040D00000000B40C4E9000080E900009CE90000FA
:1040E000C0B270B51E281CD8184B8000C35C1C07DA
:1040F000240F0F2C15D0022913D801251B099D4030
:10410000134A6403A41822682A4016D1002909D151
:10411000A9B20232200007F08EF8A9B2200007F001
:10412000C5F870BD01290AD1A9B2200007F083F8B3
:10413000A9B2200007F0B8F8F3E70129F8D0022966
:10414000EBD1216A4D402562EBE7C04644EA00000E
:1041500000000B40C3B270B500201E2B19D80D4AC9
:104160009B009B5C1C07240F0F2C12D00A4A64038F
:10417000A418012215001B099D40ADB229002000A2
:1041800007F06AF82900200007F088F80138434258
:10419000584170BD44EA000000000B40007C7047AD
:1041A00010B5036889B25B6A984710BD70B504000A
:1041B000037C002083420CD089B26069802507F01F
:1041C00085FA6D002900606907F085FA0028F9D0AA
:1041D000012070BD0300027C0020824213D01A7EB1
:1041E00082239B005A430B4B81219B18802289001C
:1041F00092009A185B1810681968884204DB1268EC
:104200001868801AFF30704718681368C01A0138A0
:10421000F9E7C04630100020002330B5027C9A42F6
:1042200016D08223017E802581209B004B430B4AC0
:104230008000D318AD0018185B1904681B689C42F5
:1042400008D082235B004B4300681B185B009B5A1D
:10425000180030BD01235B42FAE7C0460806002083
:104260000023084A4360083202600C22FA23417698
:1042700051439B008360044BCA585B181B7A426110
:1042800003767047D8CD0000E4EA0000F023184020
:10429000203843425841800270470F2303400020DA
:1042A000012B03D08020032B01D1800070474000F8
:1042B000FCE70000F0231B01184080239B0098427C
:1042C00005D0044BC01843425841C0027047C0207B
:1042D0004001FBE700FDFFFF0C23F0B504248BB089
:1042E00002911600427E4F4F5A434F4B05009B18D8
:1042F0009A791C5705925A79DB7901929B00DA5D15
:104300001207120F0392017E4848425C002A37D1FF
:10431000013242542A74029A002A34D00122FB5CF2
:104320001B099A406B460492198A039B002258038A
:104330003F4BC01806F07FFF0121059B06229B0022
:10434000F85C0027030900079940000F06F0B6FF4C
:1043500006220499039806F0B1FF0021019806F0A7
:1043600015FF019806F026FF0299FBF7D7FE314BA7
:104370000137984209D9F9B2019806F007FFF0E732
:104380002A7C002AC7D10BB0F0BD029B30000693F7
:10439000FFF783FF06AB98803000FFF777FF06AB8F
:1043A000D8803000FFF786FF06AB1881002306A9EE
:1043B0006869099307F048F901222121686907F02B
:1043C0009AF90321FF232140C9008B408022DB435F
:1043D0008A40002C19DB1F20012120408140164813
:1043E0000160A408A4002418C020800021580B40BC
:1043F0001A43225068690122002107F085F9012241
:104400006869110007F080F9BDE70F210C40083CF6
:104410000A49A408A4006418E1690B401A43E26148
:10442000E8E7C04644EA0000E4EA00000006002095
:1044300000000B40FFFF000000E100E000ED00E0A5
:10444000892210B55200FFF747FF10BD802381225B
:104450009B009200C3588058181A01D50130FF30D4
:104460007047000010B50300027C0020824207D094
:1044700082201B7E80005843024BC018FFF7E6FFE6
:1044800010BDC0460806002010B50300027C0020C5
:10449000824207D082201B7E80005843024BC01806
:1044A000FFF7D4FF10BDC0463010002081238022CA
:1044B0009B009200C158825810B591420AD0C25850
:1044C000C4585200125A611CFF2C00D10021C15067
:1044D000100010BD01204042FBE7000010B50300B2
:1044E000027C0020824207D082201B7E800058433D
:1044F000024BC018FFF7DAFF10BDC04608060020C7
:10450000F8B5037C0400002B36D0EFF310831B4E6C
:10451000002B1AD08227BF00207E78433018FFF787
:1045200095FF002820D0207E78433018FFF7BEFF8B
:1045300085B280216069490007F0CDF80028F8D0E5
:104540002900606907F0C2F8E6E78225AD00207E09
:1045500068433018FFF77AFF0028F8D1802160699E
:1045600007F0B9F8002807D180256D00290060699F
:1045700007F0B1F80028F9D0F8BDC046301000208F
:10458000F8B50D002021040007F0ABF800280CD08E
:104590000821200007F09FF8002806D0200007F02F
:1045A00097F80821200007F0A2F80121200007F069
:1045B00098F8002828D02021200007F08CF8002847
:1045C00022D0200007F084F882239B001A00802666
:1045D0006A432149B6008A1892191668721CFF2E88
:1045E00000D1002281266B43B600CB189E19366895
:1045F000964209D08026B6009B19FC3E6E431F6888
:104600001A60F619760088530221200007F069F835
:10461000002816D08021200007F05DF8002810D077
:1046200082239B005D430D4BED182800FFF70EFF22
:10463000061E07D02800FFF739FF81B2200007F0DF
:1046400045F8F8BD2000802107F051F83200022122
:10465000200007F050F8F4E7080600203010002092
:1046600010B5037C002B03D0017E4069FFF788FF63
:1046700010BD000010B50548FFF7F2FF0448FFF732
:10468000EFFF0448FFF7ECFF10BDC0460405002013
:1046900090050020E405002010B50248FFF7E0FF78
:1046A00010BDC0465805002010B50248FFF7D8FFDE
:1046B00010BDC0467405002010B50648FFF7D0FFB6
:1046C0000548FFF7CDFF0548FFF7CAFF0448FFF78D
:1046D000C7FF10BD20050020AC050020C805002044
:1046E0003C050020F8B50400037C00200E00834246
:1046F00042D08021606906F0EEFF404D002829D1AC
:104700008227BF003B008022207E92004343EB18AB
:104710009B181A68802301325B009A4200D1002264
:104720003B00812143438900EB18591809689142E5
:1047300023D10221606906F0D4FF0028E2D0802155
:10474000606906F0C8FF0028DCD0217E6069FFF7B1
:1047500017FFD7E78220237E800058432818FFF7F1
:1047600075FE0028CCD13100606906F0AFFF6069AA
:10477000802106F0BCFF0120F8BD802292009B182A
:104780001B68591CFF2B00D10021822381229B0032
:1047900043439200EB189A1812688A4209D080228B
:1047A00092009B18FC3A42431F681960D2195200CC
:1047B000AE52EFF31083002B1AD08227BF00207E69
:1047C00078432818FFF742FE0028D0D0207E784397
:1047D0002818FFF76BFE86B280216069490006F059
:1047E0007AFF0028F8D03100606906F06FFFE6E735
:1047F00001220221606906F07EFFB8E73010002038
:10480000F8B50024802725007F00244E3A00A61921
:104810003000002108F02FF980239B00F55004336D
:10482000F55004331E4EE418B442EED100242700A4
:1048300080221C4D520065190021280008F01BF948
:1048400080239B00EF500433EF500433E418B4424C
:10485000EED100211448FFF703FD01211348FFF7B3
:10486000FFFC02211248FFF7FBFC03211148FFF770
:10487000F7FC04211048FFF7F3FC05210F48FFF770
:10488000EFFC06210E48FFF7EBFC07210D48FFF770
:10489000E7FC08210C48FFF7E3FCF8BD0806002000
:1048A000280A000030100020040500202005002008
:1048B0003C050020580500207405002090050020CC
:1048C000AC050020C8050020E4050020002070474A
:1048D0007047F7B506000D000C008B180193019B83
:1048E000671B9C4207D0336821781B6830009847CB
:1048F00001340028F3D13800FEBD70B50400080073
:104900000D00FEF799FC2368020029005B68200077
:10491000984770BD10B50B1E02D0FFF7EEFF0300E5
:10492000180010BD10B5FFF7F5FF10BD10B5FFF76B
:10493000F1FF10BD10B503681B68984710BD00005B
:1049400010B50249FFF7D9FF10BDC04618CE0000D0
:1049500070B50400FFF7DEFF05002000FFF7F0FF51
:10496000401970BD70B50400FFF7D4FF05002000AA
:10497000FFF7E6FF401970BDF0B58BB06B46150030
:10498000002205330600DA770800012D00D80A2539
:1049900009AC2900FBF748FCCAB213003733070003
:1049A000DBB2092902D813003033DBB2013C23709B
:1049B000002FEED121003000FFF7ACFF0BB0F0BDAF
:1049C000F8B506000C00151E04D10368C9B21B68B7
:1049D0009847F8BD0A2A0CD100290BDA2D21FFF7E0
:1049E000A9FF614207002A003000FFF7C5FF381811
:1049F000EFE7D2B221003000FFF7BEFFE9E710B5C4
:104A0000FFF7DEFF10BD70B50400FFF7D9FF05000A
:104A10002000FFF795FF401970BD70B50500FFF746
:104A2000CFFF04002800FFF78BFF201870BD10B5E2
:104A3000002A04D10368C9B21B68984710BDD2B2DE
:104A4000FFF79AFFFAE710B5FFF7F1FF10BD70B559
:104A50000400FFF7ECFF05002000FFF771FF40198D
:104A600070BD70B50500FFF7E2FF04002800FFF7F6
:104A700067FF201870BD0000F7B51E0008AB1B785B
:104A8000310001930500330010001700FEF716FAFD
:104A90004B49002814D10122740064085242494B4A
:104AA00038002100FEF70AFA00280FD10122454BF9
:104AB000524238002100FBF7DFFC002806D14249B2
:104AC0002800FFF71AFF04002000FEBDE0223F4B44
:104AD000120638003100FBF7D9FC002801D03C4910
:104AE000EEE7E0223B4B120638003100FBF7BAFC40
:104AF0000028F4D10022002338003100FBF7B2FC7B
:104B0000041E07D02D212800FFF714FF8023040086
:104B10001B06F618002300202F490093019B009AE2
:104B2000934208D02D4B0022FDF704F8009B01337F
:104B3000DBB20093F2E733003A00FCF7DFFC0F0032
:104B40000600FBF729FD0A22019001002800FFF76B
:104B500013FF009B0419002BB6D00198FEF73AFA18
:104B600002000B0030003900FDF760FE06000F0068
:104B700028002E21FFF7DEFE2418009B013BDBB24C
:104B80000093FF2BA0D0154B002230003900FDF719
:104B9000DBFB0F000600FBF7FFFC0A22010001907F
:104BA0002800FFF7E9FE24180198FEF713FA020027
:104BB0000B0030003900FDF739FE06000F00DCE77E
:104BC0000CCE0000FFFFEF7F10CE0000FFFFEF4193
:104BD00014CE0000FFFFEFC10000E03F00002440C2
:104BE00037B51D00069BDBB200932B00FFF744FF97
:104BF0003EBD10B50400FEF76DFEE06023682000A6
:104C00005B699847002808DAFEF764FEE368C01A7B
:104C1000A3689842F2D30120404210BDF7B50E00C0
:104C20000C0001908D18A71BAC4207D00198FFF72C
:104C3000E0FF002802DB20700134F4E73800FEBDFD
:104C4000FEE70000044B0360044B4360044B8360A9
:104C50000423C3607047C046AC0000202C00002035
:104C60001C000020F0B54D1E2E0087B00490059565
:104C7000059B9B1B9D421EDD0027049CBE4218DD48
:104C8000226863680092019300980199A268E36822
:104C900002920393FBF7FAFB002807D0029A039BCA
:104CA00022606360009A019BA260E36001370834D0
:104CB000E4E7013EDCE707B0F0BD000070B5060098
:104CC0000D000A4C0D21200003F0CAFB310020002A
:104CD00003F092F92900200003F08EF90121200051
:104CE00003F0B8FC43425841C0B270BD34480020C4
:104CF00010B5FEF76FF900220F4BFCF71BFF0022E7
:104D00000E4BFDF721FBFEF7F5F801140400C9B2C4
:104D10008220FFF7D3FF002801D1002010BD21120F
:104D2000C9B28320FFF7CAFF0028F6D0E1B2842081
:104D3000FFF7C4FFF2E7C04668FF4F410000A04103
:104D400010B5FEF747F900220F4BFCF7F3FE0022E7
:104D50000E4BFDF7F9FAFEF7CDF801140400C9B2C5
:104D60008520FFF7ABFF002801D1002010BD2112E4
:104D7000C9B28620FFF7A2FF0028F6D0E1B2872053
:104D8000FFF79CFFF2E7C04668FF4F410000A041DB
:104D9000C10510B5C90F04008820FFF78FFF002858
:104DA00003D0E1B28920FFF789FF10BD73B504007D
:104DB000144D0E0028000D2103F052FBB0212800F5
:104DC00003F01AF92100280003F016F90121280048
:104DD00003F040FC041E01D0042076BD01220090A7
:104DE000030001920D21280003F010FD280003F0BC
:104DF000C5FB0028F0D0280003F07CFC30702000B8
:104E0000EBE7C0463448002013B56B46DC1D21009B
:104E10008120FFF7CBFF03000020834206D1102141
:104E20002378813019432170FFF748FF16BD37B54D
:104E30006B46DD1D040029008020FFF7B7FF03004B
:104E40000020834207D10F23297880301940214365
:104E50002970FFF733FF3EBD10B5FFF7E8FF10BD27
:104E600037B56B46DC1D050021008120FFF79EFF52
:104E700003000020834209D122780823854206D00E
:104E80009A43227021788120FFF718FF3EBD13431B
:104E90002370F7E737B56B46DC1D05002100802045
:104EA000FFF784FF03000020834208D12078012D02
:104EB00006D12843207021788020FFF7FFFE3EBDF9
:104EC00001239843F6E713B56B46DC1D21008F20C4
:104ED000FFF76CFFFF23002800D12378180016BDD0
:104EE00010B5154C0D21200003F0BAFA0121200065
:104EF00003F0B0FB002801D0002010BDFFF784FFB5
:104F00000028F9D06420FEF71BFD0120FFF7A8FF61
:104F10000028F1D03220FEF713FD0120FFF7BAFF81
:104F20000028E9D03220FEF70BFDFFF7CCFFFF3859
:104F3000431E9841C0B2E0E734480020F7B5FA2696
:104F400005000C000227B600FFF7BDFF384208D16C
:104F5000013E002E01D10020FEBD0120FEF7F0FC35
:104F6000F2E701AF39009420FFF720FF0028F2D1CB
:104F70006B465E1D31009530FFF718FF0028EAD11F
:104F80003A783378120213431BB22B606B469E1D96
:104F900031009630FFF70AFF0028DCD16B46DD1D9B
:104FA00029009730FFF702FF0028D4D132782B7800
:104FB000120213431BB223600130CDE7F7B5019015
:104FC000B0200F001600FFF732FF00281DD0102080
:104FD000FFF72DFF002818D03220FEF7B1FC20206B
:104FE000FFF725FF00240500A0420ED0A6420EDDEB
:104FF000FFF769FF0423184209D1019BA00039186B
:105000001818FFF79BFF002806D1002502E0B0200A
:10501000FFF722FF2800FEBD0134A642E6DD302066
:10502000FFF705FFE2E70000F0B504008DB000AF28
:10503000FA60BB60B961FFF7E7FE0120FFF710FFE0
:105040002000FFF755FE0120FFF77AFE0020FFF752
:105050009FFE0120FFF71EFF6A46FB68DB00083356
:10506000D21AD31A95463B619D4600231E007A61F1
:105070003B623B6AFA68934251DA2C23F918043BED
:105080000122F818FFF79AFF002841D0B86AFB6A9E
:1050900040435B43C018FDF763FF07F009F9BB69A4
:1050A0001A685B68FDF750F902000B0000204049C8
:1050B000FCF740FD38607960B86AFDF751FF0400E5
:1050C0000D00F86AFDF74CFF22002B0007F0ECF80A
:1050D0000022384BFDF738F9374A384BFCF72AFDE8
:1050E000BB69040098680D00FDF73AFF02000B0051
:1050F00020002900FDF79AFB3C687D687A69F3007F
:10510000D218146055603A690136D3181860596096
:105110000A20FEF715FC3B6A01333B62A9E7002039
:10512000022E42DD31007869FFF79CFD31003869BD
:10513000FFF798FDB31E0022FB60002301243A62B2
:105140007B62BA61FB61013EB44216DAB869F96963
:105150007B69E5005B191A685B68FCF7CFF93B696E
:10516000B861F961386A796A5D192A686B68FCF779
:10517000C5F9013438627962E6E7F868FDF7F0FEB8
:1051800002000B0004000D00B869F969FCF7D2FCBD
:10519000BB68220018605960386A796A2B00FCF7F6
:1051A000C9FCBB6C186059600120BD460DB0F0BD54
:1051B0000000F03F00806640182D4454FB21094058
:1051C0001F4B70B54360812300253222DB00016054
:1051D000C5501C4B0400C5501B4B2900C5501B4B30
:1051E000C5501B4BC5501B4BC250FA221A4B5201E3
:1051F000C5501A4BC5501A4BC5501A4BC5501A4BC7
:10520000C5501A4BC5501A4BC5501A4BC2500122FB
:105210000433C554184BC2548022184BD200C550D9
:10522000174BC01807F027FC164B174AE318A218B3
:105230001D700933FF339342FAD1200070BDC04680
:10524000040500200C0400001025000014250000B7
:10525000182500001C250000202500002425000042
:10526000282500002C2500003025000034250000F2
:10527000382500003C2500004125000044250000A1
:1052800048250000140500001426000070B5040035
:1052900000680D00FFF7D4F80023194AA350043A20
:1052A000A350184AA350184AA350FEF713FB174BFC
:1052B000E050FEF70FFB164BE0502833E35C002B69
:1052C0001CD06068002819D01249FFF741FB124931
:1052D0006068FFF727FB0A2229006068FFF7C1FB1F
:1052E0000E496068FFF71EFB0D4B0A22E15860680B
:1052F000FFF79DFB0B496068FFF72AFB70BDC046B6
:105300000C040000142500001025000038250000C2
:1053100018250000A6D00000C6D00000D9D000009B
:105320001C2500006DDE0000F7B50400FEF7D2FA80
:10533000254A2649A35861580700C31A01928B4297
:105340001BD3234D234B6259E3589A4215D0842135
:10535000635949005943204B6618F31800931B7892
:10536000002B0BD163591D4A0133134004D5202271
:10537000013B5242134301336351F7BDA223DB00CB
:10538000F6182068013BFF3BC918036861185B6889
:1053900032689847124A3368A158CB18A350114A73
:1053A000A3580133A3500023009A137063590B4A8A
:1053B0000133134004D52022013B524213430133F1
:1053C0006351019BE750D8E7182500001C25000019
:1053D0001025000014250000140500001F000080A7
:1053E0002825000030250000F0B51700284A294B79
:1053F000855885B00135040002911D400192039348
:1054000004D52023013D5B421D430135224EA359A3
:10541000AB4222D1214AA3580133A35095239B01CB
:10542000E35C002B05D06068002802D01C49FFF720
:105430008FFA8423A2595B0053431A4AE3189B183E
:1054400000221A70A359039A0133134004D5202275
:10545000013B524213430133A3518426019B760042
:10546000E3583A005E438223DB00F01820180299CB
:1054700007F0F8FAA2230120A619DB00F3181F6039
:10548000084BF618019B3070E55005B0F0BDC046E2
:10549000142500001F0000801025000020250000BA
:1054A00078D0000014050000074B084AC358805804
:1054B000181A074B2030184004D5202301385B42CE
:1054C000184301307047C046142500001025000025
:1054D0001F000080014BC1507047C04644250000AA
:1054E00010B50400FEF7F6F9044BE358C01A044B5C
:1054F000E35898428041404210BDC0463825000024
:105500003C250000F7B50400006803681B69984754
:10551000002840DD264A2749A358274D1B18A350D1
:105520008122D2006358A25801959B1A234A9B18E6
:105530002B4003D5224A013B1343013398420ADD35
:105540006258019D1218D21A2A4003D51C4D013A07
:105550002A43013262500500984200DD1D0081237C
:1055600027008026DB00E158206849190837F6003B
:10557000B14211DC2A00E1587918FFF74FFB812373
:10558000DB00E058019A4519154003D50C48013D50
:1055900005430135E550F7BDE258E158B61A7918D0
:1055A0003200FFF73BFBAA1B39002068E5E7C04645
:1055B000242500000C040000FF030080FF0300000E
:1055C00000FCFFFF0020022A06D9C879012804D177
:1055D0000020092A00D909307047002803D1052A84
:1055E000FAD90530F8E70020F6E700000200F0B530
:1055F0000C4B0D4F141AA14211DD0825147863409D
:1056000001265C1033409C466646A3B2002E01D0B2
:105610007C40A3B2013D002DF2D10132EAE718002F
:10562000F0BDC046FFFF000001A0FFFFF0B500265F
:10563000C9B01F00254B08AD2B80254B039001926C
:10564000C35C0C00B34209D0019BB3423BD0B742CC
:1056500004D005A91F4801F012F80600BB1C9B19D5
:105660009BB202936B461B7A2C71AB70029B062493
:105670001B12EB7001236B71002E07D0162004ABB8
:10568000320005A9C01807F0EDF93419019B002B71
:1056900007D0002F05D028193A00190007F0E2F9C9
:1056A000E419029909A8FFF7A1FF0D2208AB1855CC
:1056B0001B19001258709A702900E21C0398FFF71A
:1056C00093FE49B0F0BD019EC8E7C046AA55000050
:1056D00041250000681B002010B5FFF7A7FF10BD93
:1056E000002310B51A008021FFF7A0FF10BD002392
:1056F00010B51A008121FFF799FF10BD13B501AC59
:105700002270637022000223FFF790FF13BD002375
:1057100010B51A000121FFF789FF10BDF0B51E2456
:105720000F0089B00500160000212200684607F02E
:10573000A2F939000F22684607F060FA0F22100024
:105740003100684407F05AFA23006A460321280012
:10575000FFF76CFF09B0F0BDF0B504250600092085
:1057600087B002AC0192009321700DAB2A0001A911
:1057700068441F7807F076F90D202A0069466844CE
:1057800007F070F911202A000CA9684407F06AF9A3
:105790000E232200502130006773FFF747FF07B048
:1057A000F0BDF0B5060004250D2087B003AC0192D2
:1057B000009321700CAB2A0001A968441F7807F000
:1057C00051F911202A006946684407F04BF90A2371
:1057D0002200512130006772FFF728FF07B0F0BDAB
:1057E00013B56C466270E37012121B122170A27026
:1057F00023716A4605235321FFF718FF13BD7FB5B8
:1058000008AC25880AAC267801AC62700022A3702F
:1058100025711B122D122170E3706571D1B2931D99
:105820008E4207D9062A05D00999A318895C01324E
:105830009971F3E79BB222005221FFF7F7FE7FBD7B
:10584000F7B50B7805000E00AA2B43D14B78552BEA
:1058500040D18B18013B1B780D2B3BD1033A8B18A1
:10586000CC7888785B788A5C24021B0204431A4354
:10587000081D0F7921000092FFF7B8FE95239B01C8
:10588000EB5C0190002B1DD0686800281AD02949D4
:10589000FFF748F87B1EDBB268682749802B02D8E7
:1058A000264A9B009958FFF741F825496868FFF799
:1058B00039F8009B019A68682249934200D0224936
:1058C000FFF746F8009B019A934204D01F4AAB5859
:1058D0000133AB50F7BD1E4AAB580133AB50012F1B
:1058E00006D1FDF7F7FF1B4BE8502800FFF70FFF2D
:1058F000022C1CD9220031002800FFF763FE023C75
:10590000831D241AF618A4B2134BFB189B005B5995
:10591000002B03D022003100380098470F4BEB5882
:10592000002BD7D02200310038009847D2E700245E
:105930002600E9E765D0000050D000004CCE000002
:1059400072D0000057D000005ED000003425000067
:105950002C250000382500005209000044250000D5
:10596000F7B5364A0124156800221100344B019224
:105970001B88344A86589446043A825896420CD181
:10598000002901D02D4A1560019A002A01D02C4A25
:105990001380F7BD21001500EBE7624682582A4FBD
:1059A0008218167A6246825801323A4003D5274F50
:1059B000013A3A4301326746C251002D07D12A000D
:1059C000AA2EE8D1224A210016702200E3E7012D19
:1059D00006D1552E16D11E4A210056700222DAE752
:1059E000FF2D0FDC1A496A1C4E55042A0DD1CD78C3
:1059F0008B7880212D022B4307339BB24900019401
:105A00008B42C7D921000022C5E7062AC2DD9A428F
:105A1000C0D10A4C019D2360002D01D0084D2B8080
:105A20000D2E07D10B78AA2B04D14B78552B01D121
:105A3000FFF706FF00232360ABE7C0465C1B002096
:105A4000581A00200C040000FF03008000FCFFFF38
:105A50005A1A002010B50400FFF754FD2000FFF78C
:105A60007FFF2000FFF760FC10BDF8B515000C00AB
:105A70000700FDF72FFFFA21001B8900FAF74EFB04
:105A80003C226A430400151A904203D300218A4243
:105A90000DD00D006426300011006043FAF73EFB84
:105AA000011CC0B2B04200D9311C2A00C9B293B265
:105AB0003868A2B2FFF794FEF8BD426002000023EE
:105AC00001603432010010B514008360C3600361CB
:105AD000436103764376C3631C3108C113700132FE
